:100000000C942A000C943F000C943F000C943F0089
:100010000C943F000C943F000C943F000C943F0064
:100020000C943F000C943F000C943F000C943F0054
:100030000C943F000C943F000C943F000C943F0044
:100040000C943F000C943F000C943F000C943F0034
:100050000C943F0011241FBECFE5D8E0DEBFCDBF1A
:1000600010E0A0E6B0E0E6E3FBE002C005900D92F0
:10007000A038B107D9F70E94F1000C9499050C94AF
:1000800000003E9A3F98309A319A329A379A3898BF
:1000900039983A983B980895369ACE99FECF84B114
:1000A00095B108950C944C00CF93DF9300D000D00D
:1000B000CDB7DEB70E944C009C01990F440B550B45
:1000C00029833A834B835C83CA01B9010E94CA0128
:1000D00020E030E040EA50E469837A838B839C839C
:1000E00069817A818B819C810E94560220E030E0F8
:1000F00048EC52E469837A838B839C8369817A819B
:100100008B819C810E94560220E030E84FE754E446
:1001100069837A838B839C8369817A818B819C81BB
:100120000E94200169837A838B839C8369817A8111
:100130008B819C810E949201CB010F900F900F90B8
:100140000F90DF91CF9108950E9452002FEF80E72A
:1001500092E0215080409040E1F700C00000F4CFD1
:10016000CF93DF93CDB7DEB764970FB6F894DEBFB9
:100170000FBECDBF84E6A82EB12C8E010F5F1F4F9E
:100180009FE6E92E90E0F92E20E6C22E20E0D22E46
:100190000E945400B5010E94F8008B309105CCF00C
:1001A0009F938F937F936F93DF92CF921F930F93C1
:1001B0000E94C3020FB6F894DEBF0FBECDBF9FEF03
:1001C00020E782E0915020408040E1F700C000002D
:1001D000DFCF9F938F937F936F93FF92EF92E6CF42
:1001E00008958FEF84BB15BA0E9441000E94B000B1
:1001F00097FB072E16F4009407D077FD09D00E94D4
:100200000C0107FC05D03EF4909581959F4F089511
:10021000709561957F4F0895AA1BBB1B51E107C0E4
:10022000AA1FBB1FA617B70710F0A61BB70B881F86
:10023000991F5A95A9F780959095BC01CD01089515
:100240000E9434010C941C020E94150258F00E9476
:100250000E0240F029F45F3F29F00C940502511181
:100260000C9450020C940B020E942D0268F3992307
:10027000B1F3552391F3951B550BBB27AA276217A2
:100280007307840738F09F5F5F4F220F331F441FAF
:10029000AA1FA9F335D00E2E3AF0E0E832D09150E3
:1002A0005040E695001CCAF72BD0FE2F29D0660FD0
:1002B000771F881FBB1F261737074807AB07B0E813
:1002C00009F0BB0B802DBF01FF2793585F4F3AF019
:1002D0009E3F510578F00C9405020C9450025F3F4C
:1002E000E4F3983ED4F3869577956795B795F7959F
:1002F0009F5FC9F7880F911D9695879597F9089587
:10030000E1E0660F771F881FBB1F62177307840722
:10031000BA0720F0621B730B840BBA0BEE1F88F731
:10032000E09508950E9499016894B1110C945002CF
:1003300008950E94350288F09F5798F0B92F9927A9
:10034000B751B0F0E1F0660F771F881F991F1AF0C0
:10035000BA95C9F714C0B13091F00E944F02B1E0D4
:1003600008950C944F02672F782F8827B85F39F0D3
:10037000B93FCCF3869577956795B395D9F73EF459
:1003800090958095709561957F4F8F4F9F4F089501
:10039000E89409C097FB3EF490958095709561951F
:1003A0007F4F8F4F9F4F9923A9F0F92F96E9BB27D5
:1003B0009395F695879577956795B795F111F8CF51
:1003C000FAF4BB0F11F460FF1BC06F5F7F4F8F4FBC
:1003D0009F4F16C0882311F096E911C0772321F0B2
:1003E0009EE8872F762F05C0662371F096E8862F4A
:1003F00070E060E02AF09A95660F771F881FDAF7A1
:10040000880F9695879597F9089597F99F6780E8E3
:1004100070E060E008959FEF80EC089500240A9456
:100420001616170618060906089500240A941216CF
:100430001306140605060895092E0394000C11F402
:10044000882352F0BB0F40F4BF2B11F460FF04C0AF
:100450006F5F7F4F8F4F9F4F089557FD9058440F08
:10046000551F59F05F3F71F04795880F97FB991F13
:1004700061F09F3F79F087950895121613061406D0
:10048000551FF2CF4695F1DF08C01616170618065D
:10049000991FF1CF86957105610508940895E89438
:1004A000BB2766277727CB0197F908950E94690239
:1004B0000C941C020E940E0238F00E94150220F0DB
:1004C000952311F00C9405020C940B0211240C944A
:1004D00050020E942D0270F3959FC1F3950F50E0DA
:1004E000551F629FF001729FBB27F00DB11D639FE6
:1004F000AA27F00DB11DAA1F649F6627B00DA11D8C
:10050000661F829F2227B00DA11D621F739FB00D31
:10051000A11D621F839FA00D611D221F749F3327A1
:10052000A00D611D231F849F600D211D822F762F3A
:100530006A2F11249F5750409AF0F1F088234AF017
:10054000EE0FFF1FBB1F661F771F881F9150504083
:10055000A9F79E3F510580F00C9405020C945002BF
:100560005F3FE4F3983ED4F3869577956795B7950A
:10057000F795E7959F5FC1F7FE2B880F911D969524
:10058000879597F90895AEE0B0E0E9ECF2E00C94BD
:1005900070050D891E8986E08C831A8309838FEF8D
:1005A0009FE79E838D83AE01475E5F4F6F89788D95
:1005B000CE0101960E94E6022F813885020F131F9B
:1005C000F80110822E96E4E00C948C05AFE0B0E0C8
:1005D000ECEEF2E00C9462057C013B018A01DC0147
:1005E00017961C921E92169713968C9181FFC3C189
:1005F0009AE0292EFE0131964F01D70113969C9166
:10060000F30193FD859193FF81913F01882309F4C4
:1006100048C1853239F493FD859193FF81913F0163
:10062000853229F4B70190E00E94D404E6CFB12CC2
:10063000412C512CBFE1B51538F08B3209F188F40B
:10064000803201F1833221F157FC3AC020ED280FAE
:100650002A3040F556FE1FC0B29C200D1124B22E48
:1006600006C08D3291F0803379F7689450F8F30129
:1006700093FD859193FF81913F018111DBCF20C0D4
:10068000689451F8689452F8F2CF689453F8EFCF19
:10069000689454F8ECCF429C200D1124422E6894AB
:1006A00055F8E5CF8E3229F456FCFBC0689456F815
:1006B000DECF8C3619F4689457F8D9CF8836B9F262
:1006C000982F9F7D95549330C0F08336A1F18337E6
:1006D000C1F1833509F05BC0D801CD90DD908D016B
:1006E0006B2D70E056FC02C06FEF7FEFC6010E94D9
:1006F000BE045C01689457F80AC00C5F1F4FEFE31B
:10070000E983AA24A394B12C6401E89457F853FC1C
:1007100004C04A141B0409F018F5342CA114B104C8
:1007200031F5332009F469CFB70180E290E00E94EF
:10073000D4043A94F6CFD8018C9189830E5F1F4F71
:10074000E0CFF801C190D1908F016B2D70E056FC85
:1007500002C06FEF7FEFC6010E94C9045C01D5CFD4
:10076000B70180E290E00E94D4044A94D2CFF6010F
:1007700057FC859157FE81916F01B70190E00E946F
:10078000D40431103A94B1E0AB1AB108C7CF843623
:1007900019F0893609F074C0F80157FE6AC06191FA
:1007A0007191819191918F01E52DEF76DE2E97FF6A
:1007B00009C090958095709561957F4F8F4F9F4FA1
:1007C0006894D7F82AE030E0A4010E940405C82EFE
:1007D000C818AC2C5D2CD6FE0CC0E89450F8CB1495
:1007E00040F4D4FE05C0D2FC03C05D2D5E7E552EC4
:1007F000AB2C54FE98C0FE01EC0DF11D80818033BE
:1008000009F08AC0652D697E562E752D7870372EB9
:1008100053FC98C050FE92C0BC2CA41418F44C0C8D
:10082000B42CBA1854FE94C0B70180E390E00E9443
:10083000D40452FE09C088E790E051FE02C088E56A
:1008400090E0B7010E94D404CB1408F48DC0CA9480
:10085000D12C8FEFC81AD80AC80CD91CD6018E919A
:100860006D01B70190E00E94D4048C149D04B1F78F
:1008700058CF61917191072E000C880B990B93CF83
:10088000D52CE894D4F82AE030E0853739F1F52DFD
:10089000F97FDF2E8037A9F058F48835A9F08F361C
:1008A000D9F0F701868197812F96E2E10C947E05BD
:1008B0008837B9F7D4FE02C06894D2F820E130E05E
:1008C0000DC06894D4F8F6CF54FE03C02F2F2660D5
:1008D000D22E20E132E002C028E030E0F801D7FE5D
:1008E00015C041915191619171914C875D876E87DF
:1008F0007F878F01A4016C857D858E859F850E94F1
:100900000405C82EC818E894D7F863CF8191919157
:10091000AC0170E060E0E9CF52FC02C0A39475CF57
:10092000A394A39472CF852D867809F46ECFF6CF69
:10093000B70180E290E00E94D404A394A414C0F311
:10094000312C70CF342C3A18A41408F46BCFF8CFA4
:10095000852D867809F478CF8BE251FE80E257FC32
:100960008DE2B70190E06ECFB70180E390E00E9486
:10097000D404BA9469CF8FEF9FEF96CFFC01059016
:10098000615070400110D8F7809590958E0F9F1F91
:100990000895FC016150704001900110D8F78095D6
:1009A00090958E0F9F1F08950F931F93CF93DF9302
:1009B000182F092FEB018B8181FD09C01FEF0FEF6D
:1009C000812F902FDF91CF911F910F91089582FF7A
:1009D00014C02E813F818C819D81281739073CF4FA
:1009E000E881F981CF0101969983888310838E81F4
:1009F0009F8101969F838E83E3CFE885F985812FC0
:100A00000995892BA1F3DACFFA01AA27283051F1F1
:100A1000203181F1E8946F936E7F6E5F7F4F8F4F2F
:100A20009F4FAF4FB1E03ED0B4E03CD0670F781F8E
:100A3000891F9A1FA11D680F791F8A1F911DA11D73
:100A40006A0F711D811D911DA11D20D009F46894AC
:100A50003F912AE0269F11243019305D3193DEF654
:100A6000CF010895462F4770405D4193B3E00FD00A
:100A7000C9F7F6CF462F4F70405D4A3318F0495DF5
:100A800031FD4052419302D0A9F7EACFB4E0A695D8
:100A90009795879577956795BA95C9F700976105FA
:100AA000710508959B01AC010A2E06945795479550
:100AB00037952795BA95C9F7620F731F841F951F45
:100AC000A01D08952F923F924F925F926F927F9256
:100AD0008F929F92AF92BF92CF92DF92EF92FF924E
:100AE0000F931F93CF93DF93CDB7DEB7CA1BDB0BFA
:100AF0000FB6F894DEBF0FBECDBF09942A8839889F
:100B000048885F846E847D848C849B84AA84B984A5
:100B1000C884DF80EE80FD800C811B81AA81B981B1
:100B2000CE0FD11D0FB6F894DEBF0FBECDBFED01C5
:060B30000895F894FFCFC8
:100B3600506F6D696172313A25642E2564560050F6
:100B46006F6D696172313A25642E30256456000056
:00000001FF
